{
  "contractName": "MisqeenToken",
  "abi": [
    {
      "inputs": [],
      "payable": false,
      "stateMutability": "nonpayable",
      "type": "constructor"
    },
    {
      "constant": true,
      "inputs": [],
      "name": "totalSupply",
      "outputs": [
        {
          "internalType": "uint256",
          "name": "",
          "type": "uint256"
        }
      ],
      "payable": false,
      "stateMutability": "view",
      "type": "function"
    }
  ],
  "bytecode": "0x6080604052348015600f57600080fd5b50620f42406000819055506084806100286000396000f3fe6080604052348015600f57600080fd5b506004361060285760003560e01c806318160ddd14602d575b600080fd5b60336049565b6040518082815260200191505060405180910390f35b6000548156fea265627a7a7231582095a45b66bec76edd0628dd40c43f2ca7abf81979b2b12a0dacee0825ec029ff864736f6c63430005100032",
  "source": "pragma solidity >=0.4.22 <0.9.0;\r\n// declare solidity version\r\n\r\ncontract MisqeenToken{\r\n    // Declare state variable\r\n    // Total supply of token\r\n    uint256 public totalSupply;\r\n    // Constructor\r\n    constructor() public{\r\n        // Set total number of tokens\r\n        totalSupply = 1000000;\r\n\r\n    }\r\n    // Read total number of tokens \r\n}",
  "sourcePath": "D:/dev/dapp/misqeen/contracts/MisqeenToken.sol",
  "compiler": {
    "name": "solc",
    "version": "0.5.16+commit.9c3226ce.Emscripten.clang"
  },
  "schemaVersion": "3.4.1",
  "updatedAt": "2021-06-12T21:59:12.467Z",
  "networkType": "ethereum",
  "devdoc": {
    "methods": {}
  },
  "userdoc": {
    "methods": {}
  }
}